:020000020000FC
:0200000083C0BB
:02000E0025C00B
:02001C0014C00E
:1000240025C0FF0201000000FF0200200000FF02C3
:1000340000400000FF020080000000F100DF00E645
:1000440000ED9FB763956E3121F429982A9825BC59
:1000540066279FBF18958FB77395763429F4439814
:1000640042982092B10077278FBF18951FB700914F
:10007400C6000C93A3951FBF189522E02093B000EF
:1000840020E02093B1002AEF2093B30022E02093D4
:10009400700020E02093B600089522E027BB209250
:1000A400B200432C23E02093B100089521E0209373
:1000B400B100089522E024BD20E025BD2AEF27BD2C
:1000C40022E020936E00089522E025BB26BC532C29
:1000D40023E025BD089520E025BD089523E3209362
:1000E400C40020E02093C50028E92093C10026E045
:1000F4002093C2000895399A3B9A3A9A219A229AF7
:100104003D9A08952FBE2092C1002092C2002092F1
:10011400C4002092C50020926E0026BC25BC25BADE
:1001240025BC27BC27BE2DBE2EBE24B825B8222749
:10013400E0E0F1E02193F330E9F7E030D9F7EE277E
:10014400FF27EEE1FF27EA95F083E9F72FEF2DBFB4
:1001540022E02EBF3394C2DFADDF8FDFCCDFA0E01F
:10016400B1E0CA2FDB2F7894AC17F1F3521511F4D8
:10017400E6E2F0E024913881231731F4C395553039
:1001840071F0E3955395F0CF521529F0433018F4EC
:1001940036964395EFCFC39555274427E5CFEEE335
:1001A400F0E0421519F032964A95E9F72591359118
:1001B400F22FE32F55274427099429982A9A84DF9C
:1001C4004298439A6ADFD0CF2A98299A7DDF4398D0
:1001D400429A63DFC9CF4298439A5FDFC5CF439801
:0601E400429A5BDFC1CF6F
:00000001FF
